{
  "abi": [
    {
      "inputs": [
        {
          "internalType": "uint256",
          "name": "id",
          "type": "uint256"
        }
      ],
      "name": "getProduct",
      "outputs": [
        {
          "components": [
            {
              "internalType": "uint256",
              "name": "id",
              "type": "uint256"
            },
            {
              "internalType": "string",
              "name": "name",
              "type": "string"
            },
            {
              "internalType": "string",
              "name": "description",
              "type": "string"
            },
            {
              "internalType": "string",
              "name": "barcode",
              "type": "string"
            }
          ],
          "internalType": "struct ProductRegistration.Product",
          "name": "",
          "type": "tuple"
        }
      ],
      "stateMutability": "view",
      "type": "function"
    },
    {
      "inputs": [],
      "name": "productCount",
      "outputs": [
        {
          "internalType": "uint256",
          "name": "",
          "type": "uint256"
        }
      ],
      "stateMutability": "view",
      "type": "function"
    },
    {
      "inputs": [
        {
          "internalType": "uint256",
          "name": "",
          "type": "uint256"
        }
      ],
      "name": "products",
      "outputs": [
        {
          "internalType": "uint256",
          "name": "id",
          "type": "uint256"
        },
        {
          "internalType": "string",
          "name": "name",
          "type": "string"
        },
        {
          "internalType": "string",
          "name": "description",
          "type": "string"
        },
        {
          "internalType": "string",
          "name": "barcode",
          "type": "string"
        }
      ],
      "stateMutability": "view",
      "type": "function"
    },
    {
      "inputs": [
        {
          "internalType": "string",
          "name": "name",
          "type": "string"
        },
        {
          "internalType": "string",
          "name": "description",
          "type": "string"
        },
        {
          "internalType": "string",
          "name": "barcode",
          "type": "string"
        }
      ],
      "name": "registerProduct",
      "outputs": [],
      "stateMutability": "nonpayable",
      "type": "function"
    }
  ],
  "devdoc": {
    "kind": "dev",
    "methods": {},
    "version": 1
  },
  "evm": {
    "assembly": "    /* \"ProductRegistration.sol\":57:671  contract ProductRegistration {... */\n  mstore(0x40, 0x80)\n  callvalue\n  dup1\n  iszero\n  tag_1\n  jumpi\n  0x00\n  dup1\n  revert\ntag_1:\n  pop\n  dataSize(sub_0)\n  dup1\n  dataOffset(sub_0)\n  0x00\n  codecopy\n  0x00\n  return\nstop\n\nsub_0: assembly {\n        /* \"ProductRegistration.sol\":57:671  contract ProductRegistration {... */\n      mstore(0x40, 0x80)\n      callvalue\n      dup1\n      iszero\n      tag_1\n      jumpi\n      0x00\n      dup1\n      revert\n    tag_1:\n      pop\n      jumpi(tag_2, lt(calldatasize, 0x04))\n      shr(0xe0, calldataload(0x00))\n      dup1\n      0x3406b718\n      eq\n      tag_3\n      jumpi\n      dup1\n      0x7acc0b20\n      eq\n      tag_4\n      jumpi\n      dup1\n      0xb9db15b4\n      eq\n      tag_5\n      jumpi\n      dup1\n      0xe0f6ef87\n      eq\n      tag_6\n      jumpi\n    tag_2:\n      0x00\n      dup1\n      revert\n        /* \"ProductRegistration.sol\":311:528  function registerProduct(string memory name, string memory description, string memory barcode) public {... */\n    tag_3:\n      tag_7\n      tag_8\n      calldatasize\n      0x04\n      tag_9\n      jump\t// in\n    tag_8:\n      tag_10\n      jump\t// in\n    tag_7:\n      stop\n        /* \"ProductRegistration.sol\":210:250  mapping(uint => Product) public products */\n    tag_4:\n      tag_11\n      tag_12\n      calldatasize\n      0x04\n      tag_13\n      jump\t// in\n    tag_12:\n      tag_14\n      jump\t// in\n    tag_11:\n      mload(0x40)\n      tag_15\n      swap5\n      swap4\n      swap3\n      swap2\n      swap1\n      tag_16\n      jump\t// in\n    tag_15:\n      mload(0x40)\n      dup1\n      swap2\n      sub\n      swap1\n      return\n        /* \"ProductRegistration.sol\":567:669  function getProduct(uint id) public view returns (Product memory) {... */\n    tag_5:\n      tag_17\n      tag_18\n      calldatasize\n      0x04\n      tag_13\n      jump\t// in\n    tag_18:\n      tag_19\n      jump\t// in\n    tag_17:\n      mload(0x40)\n      tag_15\n      swap2\n      swap1\n      tag_21\n      jump\t// in\n        /* \"ProductRegistration.sol\":256:280  uint public productCount */\n    tag_6:\n      tag_22\n      sload(0x01)\n      dup2\n      jump\n    tag_22:\n      mload(0x40)\n        /* \"#utility.yul\":3665:3690   */\n      swap1\n      dup2\n      mstore\n        /* \"#utility.yul\":3653:3655   */\n      0x20\n        /* \"#utility.yul\":3638:3656   */\n      add\n        /* \"ProductRegistration.sol\":256:280  uint public productCount */\n      tag_15\n        /* \"#utility.yul\":3519:3696   */\n      jump\n        /* \"ProductRegistration.sol\":311:528  function registerProduct(string memory name, string memory description, string memory barcode) public {... */\n    tag_10:\n        /* \"ProductRegistration.sol\":423:435  productCount */\n      0x01\n        /* \"ProductRegistration.sol\":423:437  productCount++ */\n      dup1\n      sload\n      swap1\n        /* \"ProductRegistration.sol\":423:435  productCount */\n      0x00\n        /* \"ProductRegistration.sol\":423:437  productCount++ */\n      tag_27\n      dup4\n      tag_28\n      jump\t// in\n    tag_27:\n      swap1\n      swap2\n      sstore\n      pop\n      pop\n        /* \"ProductRegistration.sol\":472:521  Product(productCount, name, description, barcode) */\n      0x40\n      dup1\n      mload\n      0x80\n      dup2\n      add\n      dup3\n      mstore\n        /* \"ProductRegistration.sol\":480:492  productCount */\n      0x01\n      dup1\n      sload\n        /* \"ProductRegistration.sol\":472:521  Product(productCount, name, description, barcode) */\n      dup1\n      dup4\n      mstore\n      0x20\n      dup1\n      dup5\n      add\n      dup9\n      dup2\n      mstore\n      dup5\n      dup7\n      add\n      dup9\n      swap1\n      mstore\n      0x60\n      dup6\n      add\n      dup8\n      swap1\n      mstore\n      0x00\n        /* \"ProductRegistration.sol\":447:469  products[productCount] */\n      swap3\n      dup4\n      mstore\n      swap1\n      dup3\n      swap1\n      mstore\n      swap4\n      swap1\n      keccak256\n        /* \"ProductRegistration.sol\":447:521  products[productCount] = Product(productCount, name, description, barcode) */\n      dup3\n      mload\n      dup2\n      sstore\n      swap3\n      mload\n        /* \"ProductRegistration.sol\":472:521  Product(productCount, name, description, barcode) */\n      swap2\n      swap3\n        /* \"ProductRegistration.sol\":447:469  products[productCount] */\n      swap2\n        /* \"ProductRegistration.sol\":447:521  products[productCount] = Product(productCount, name, description, barcode) */\n      swap1\n      dup3\n      add\n      swap1\n      tag_29\n      swap1\n      dup3\n      tag_30\n      jump\t// in\n    tag_29:\n      pop\n      0x40\n      dup3\n      add\n      mload\n      0x02\n      dup3\n      add\n      swap1\n      tag_31\n      swap1\n      dup3\n      tag_30\n      jump\t// in\n    tag_31:\n      pop\n      0x60\n      dup3\n      add\n      mload\n      0x03\n      dup3\n      add\n      swap1\n      tag_32\n      swap1\n      dup3\n      tag_30\n      jump\t// in\n    tag_32:\n      pop\n      pop\n      pop\n      pop\n      pop\n      pop\n        /* \"ProductRegistration.sol\":311:528  function registerProduct(string memory name, string memory description, string memory barcode) public {... */\n      jump\t// out\n        /* \"ProductRegistration.sol\":210:250  mapping(uint => Product) public products */\n    tag_14:\n      0x00\n      0x20\n      dup2\n      swap1\n      mstore\n      swap1\n      dup2\n      mstore\n      0x40\n      swap1\n      keccak256\n      dup1\n      sload\n      0x01\n      dup3\n      add\n      dup1\n      sload\n      swap2\n      swap3\n      swap2\n      tag_33\n      swap1\n      tag_34\n      jump\t// in\n    tag_33:\n      dup1\n      0x1f\n      add\n      0x20\n      dup1\n      swap2\n      div\n      mul\n      0x20\n      add\n      mload(0x40)\n      swap1\n      dup2\n      add\n      0x40\n      mstore\n      dup1\n      swap3\n      swap2\n      swap1\n      dup2\n      dup2\n      mstore\n      0x20\n      add\n      dup3\n      dup1\n      sload\n      tag_35\n      swap1\n      tag_34\n      jump\t// in\n    tag_35:\n      dup1\n      iszero\n      tag_36\n      jumpi\n      dup1\n      0x1f\n      lt\n      tag_37\n      jumpi\n      0x0100\n      dup1\n      dup4\n      sload\n      div\n      mul\n      dup4\n      mstore\n      swap2\n      0x20\n      add\n      swap2\n      jump(tag_36)\n    tag_37:\n      dup3\n      add\n      swap2\n      swap1\n      0x00\n      mstore\n      keccak256(0x00, 0x20)\n      swap1\n    tag_38:\n      dup2\n      sload\n      dup2\n      mstore\n      swap1\n      0x01\n      add\n      swap1\n      0x20\n      add\n      dup1\n      dup4\n      gt\n      tag_38\n      jumpi\n      dup3\n      swap1\n      sub\n      0x1f\n      and\n      dup3\n      add\n      swap2\n    tag_36:\n      pop\n      pop\n      pop\n      pop\n      pop\n      swap1\n      dup1\n      0x02\n      add\n      dup1\n      sload\n      tag_39\n      swap1\n      tag_34\n      jump\t// in\n    tag_39:\n      dup1\n      0x1f\n      add\n      0x20\n      dup1\n      swap2\n      div\n      mul\n      0x20\n      add\n      mload(0x40)\n      swap1\n      dup2\n      add\n      0x40\n      mstore\n      dup1\n      swap3\n      swap2\n      swap1\n      dup2\n      dup2\n      mstore\n      0x20\n      add\n      dup3\n      dup1\n      sload\n      tag_40\n      swap1\n      tag_34\n      jump\t// in\n    tag_40:\n      dup1\n      iszero\n      tag_41\n      jumpi\n      dup1\n      0x1f\n      lt\n      tag_42\n      jumpi\n      0x0100\n      dup1\n      dup4\n      sload\n      div\n      mul\n      dup4\n      mstore\n      swap2\n      0x20\n      add\n      swap2\n      jump(tag_41)\n    tag_42:\n      dup3\n      add\n      swap2\n      swap1\n      0x00\n      mstore\n      keccak256(0x00, 0x20)\n      swap1\n    tag_43:\n      dup2\n      sload\n      dup2\n      mstore\n      swap1\n      0x01\n      add\n      swap1\n      0x20\n      add\n      dup1\n      dup4\n      gt\n      tag_43\n      jumpi\n      dup3\n      swap1\n      sub\n      0x1f\n      and\n      dup3\n      add\n      swap2\n    tag_41:\n      pop\n      pop\n      pop\n      pop\n      pop\n      swap1\n      dup1\n      0x03\n      add\n      dup1\n      sload\n      tag_44\n      swap1\n      tag_34\n      jump\t// in\n    tag_44:\n      dup1\n      0x1f\n      add\n      0x20\n      dup1\n      swap2\n      div\n      mul\n      0x20\n      add\n      mload(0x40)\n      swap1\n      dup2\n      add\n      0x40\n      mstore\n      dup1\n      swap3\n      swap2\n      swap1\n      dup2\n      dup2\n      mstore\n      0x20\n      add\n      dup3\n      dup1\n      sload\n      tag_45\n      swap1\n      tag_34\n      jump\t// in\n    tag_45:\n      dup1\n      iszero\n      tag_46\n      jumpi\n      dup1\n      0x1f\n      lt\n      tag_47\n      jumpi\n      0x0100\n      dup1\n      dup4\n      sload\n      div\n      mul\n      dup4\n      mstore\n      swap2\n      0x20\n      add\n      swap2\n      jump(tag_46)\n    tag_47:\n      dup3\n      add\n      swap2\n      swap1\n      0x00\n      mstore\n      keccak256(0x00, 0x20)\n      swap1\n    tag_48:\n      dup2\n      sload\n      dup2\n      mstore\n      swap1\n      0x01\n      add\n      swap1\n      0x20\n      add\n      dup1\n      dup4\n      gt\n      tag_48\n      jumpi\n      dup3\n      swap1\n      sub\n      0x1f\n      and\n      dup3\n      add\n      swap2\n    tag_46:\n      pop\n      pop\n      pop\n      pop\n      pop\n      swap1\n      pop\n      dup5\n      jump\t// out\n        /* \"ProductRegistration.sol\":567:669  function getProduct(uint id) public view returns (Product memory) {... */\n    tag_19:\n        /* \"ProductRegistration.sol\":617:631  Product memory */\n      tag_49\n      mload(0x40)\n      dup1\n      0x80\n      add\n      0x40\n      mstore\n      dup1\n      0x00\n      dup2\n      mstore\n      0x20\n      add\n      0x60\n      dup2\n      mstore\n      0x20\n      add\n      0x60\n      dup2\n      mstore\n      0x20\n      add\n      0x60\n      dup2\n      mstore\n      pop\n      swap1\n      jump\n    tag_49:\n        /* \"ProductRegistration.sol\":650:658  products */\n      0x00\n        /* \"ProductRegistration.sol\":650:662  products[id] */\n      dup3\n      dup2\n      mstore\n      0x20\n      dup2\n      dup2\n      mstore\n      0x40\n      swap2\n      dup3\n      swap1\n      keccak256\n        /* \"ProductRegistration.sol\":643:662  return products[id] */\n      dup3\n      mload\n      0x80\n      dup2\n      add\n      swap1\n      swap4\n      mstore\n      dup1\n      sload\n      dup4\n      mstore\n      0x01\n      dup2\n      add\n      dup1\n      sload\n        /* \"ProductRegistration.sol\":650:662  products[id] */\n      swap2\n      swap3\n        /* \"ProductRegistration.sol\":643:662  return products[id] */\n      dup5\n      add\n      swap2\n      tag_52\n      swap1\n      tag_34\n      jump\t// in\n    tag_52:\n      dup1\n      0x1f\n      add\n      0x20\n      dup1\n      swap2\n      div\n      mul\n      0x20\n      add\n      mload(0x40)\n      swap1\n      dup2\n      add\n      0x40\n      mstore\n      dup1\n      swap3\n      swap2\n      swap1\n      dup2\n      dup2\n      mstore\n      0x20\n      add\n      dup3\n      dup1\n      sload\n      tag_53\n      swap1\n      tag_34\n      jump\t// in\n    tag_53:\n      dup1\n      iszero\n      tag_54\n      jumpi\n      dup1\n      0x1f\n      lt\n      tag_55\n      jumpi\n      0x0100\n      dup1\n      dup4\n      sload\n      div\n      mul\n      dup4\n      mstore\n      swap2\n      0x20\n      add\n      swap2\n      jump(tag_54)\n    tag_55:\n      dup3\n      add\n      swap2\n      swap1\n      0x00\n      mstore\n      keccak256(0x00, 0x20)\n      swap1\n    tag_56:\n      dup2\n      sload\n      dup2\n      mstore\n      swap1\n      0x01\n      add\n      swap1\n      0x20\n      add\n      dup1\n      dup4\n      gt\n      tag_56\n      jumpi\n      dup3\n      swap1\n      sub\n      0x1f\n      and\n      dup3\n      add\n      swap2\n    tag_54:\n      pop\n      pop\n      pop\n      pop\n      pop\n      dup2\n      mstore\n      0x20\n      add\n      0x02\n      dup3\n      add\n      dup1\n      sload\n      tag_57\n      swap1\n      tag_34\n      jump\t// in\n    tag_57:\n      dup1\n      0x1f\n      add\n      0x20\n      dup1\n      swap2\n      div\n      mul\n      0x20\n      add\n      mload(0x40)\n      swap1\n      dup2\n      add\n      0x40\n      mstore\n      dup1\n      swap3\n      swap2\n      swap1\n      dup2\n      dup2\n      mstore\n      0x20\n      add\n      dup3\n      dup1\n      sload\n      tag_58\n      swap1\n      tag_34\n      jump\t// in\n    tag_58:\n      dup1\n      iszero\n      tag_59\n      jumpi\n      dup1\n      0x1f\n      lt\n      tag_60\n      jumpi\n      0x0100\n      dup1\n      dup4\n      sload\n      div\n      mul\n      dup4\n      mstore\n      swap2\n      0x20\n      add\n      swap2\n      jump(tag_59)\n    tag_60:\n      dup3\n      add\n      swap2\n      swap1\n      0x00\n      mstore\n      keccak256(0x00, 0x20)\n      swap1\n    tag_61:\n      dup2\n      sload\n      dup2\n      mstore\n      swap1\n      0x01\n      add\n      swap1\n      0x20\n      add\n      dup1\n      dup4\n      gt\n      tag_61\n      jumpi\n      dup3\n      swap1\n      sub\n      0x1f\n      and\n      dup3\n      add\n      swap2\n    tag_59:\n      pop\n      pop\n      pop\n      pop\n      pop\n      dup2\n      mstore\n      0x20\n      add\n      0x03\n      dup3\n      add\n      dup1\n      sload\n      tag_62\n      swap1\n      tag_34\n      jump\t// in\n    tag_62:\n      dup1\n      0x1f\n      add\n      0x20\n      dup1\n      swap2\n      div\n      mul\n      0x20\n      add\n      mload(0x40)\n      swap1\n      dup2\n      add\n      0x40\n      mstore\n      dup1\n      swap3\n      swap2\n      swap1\n      dup2\n      dup2\n      mstore\n      0x20\n      add\n      dup3\n      dup1\n      sload\n      tag_63\n      swap1\n      tag_34\n      jump\t// in\n    tag_63:\n      dup1\n      iszero\n      tag_64\n      jumpi\n      dup1\n      0x1f\n      lt\n      tag_65\n      jumpi\n      0x0100\n      dup1\n      dup4\n      sload\n      div\n      mul\n      dup4\n      mstore\n      swap2\n      0x20\n      add\n      swap2\n      jump(tag_64)\n    tag_65:\n      dup3\n      add\n      swap2\n      swap1\n      0x00\n      mstore\n      keccak256(0x00, 0x20)\n      swap1\n    tag_66:\n      dup2\n      sload\n      dup2\n      mstore\n      swap1\n      0x01\n      add\n      swap1\n      0x20\n      add\n      dup1\n      dup4\n      gt\n      tag_66\n      jumpi\n      dup3\n      swap1\n      sub\n      0x1f\n      and\n      dup3\n      add\n      swap2\n    tag_64:\n      pop\n      pop\n      pop\n      pop\n      pop\n      dup2\n      mstore\n      pop\n      pop\n      swap1\n      pop\n        /* \"ProductRegistration.sol\":567:669  function getProduct(uint id) public view returns (Product memory) {... */\n      swap2\n      swap1\n      pop\n      jump\t// out\n        /* \"#utility.yul\":14:141   */\n    tag_67:\n        /* \"#utility.yul\":75:85   */\n      0x4e487b71\n        /* \"#utility.yul\":70:73   */\n      0xe0\n        /* \"#utility.yul\":66:86   */\n      shl\n        /* \"#utility.yul\":63:64   */\n      0x00\n        /* \"#utility.yul\":56:87   */\n      mstore\n        /* \"#utility.yul\":106:110   */\n      0x41\n        /* \"#utility.yul\":103:104   */\n      0x04\n        /* \"#utility.yul\":96:111   */\n      mstore\n        /* \"#utility.yul\":130:134   */\n      0x24\n        /* \"#utility.yul\":127:128   */\n      0x00\n        /* \"#utility.yul\":120:135   */\n      revert\n        /* \"#utility.yul\":146:865   */\n    tag_68:\n        /* \"#utility.yul\":189:194   */\n      0x00\n        /* \"#utility.yul\":242:245   */\n      dup3\n        /* \"#utility.yul\":235:239   */\n      0x1f\n        /* \"#utility.yul\":227:233   */\n      dup4\n        /* \"#utility.yul\":223:240   */\n      add\n        /* \"#utility.yul\":219:246   */\n      slt\n        /* \"#utility.yul\":209:264   */\n      tag_76\n      jumpi\n        /* \"#utility.yul\":260:261   */\n      0x00\n        /* \"#utility.yul\":257:258   */\n      dup1\n        /* \"#utility.yul\":250:262   */\n      revert\n        /* \"#utility.yul\":209:264   */\n    tag_76:\n        /* \"#utility.yul\":296:302   */\n      dup2\n        /* \"#utility.yul\":283:303   */\n      calldataload\n        /* \"#utility.yul\":322:340   */\n      0xffffffffffffffff\n        /* \"#utility.yul\":359:361   */\n      dup1\n        /* \"#utility.yul\":355:357   */\n      dup3\n        /* \"#utility.yul\":352:362   */\n      gt\n        /* \"#utility.yul\":349:385   */\n      iszero\n      tag_78\n      jumpi\n        /* \"#utility.yul\":365:383   */\n      tag_78\n      tag_67\n      jump\t// in\n    tag_78:\n        /* \"#utility.yul\":440:442   */\n      0x40\n        /* \"#utility.yul\":434:443   */\n      mload\n        /* \"#utility.yul\":408:410   */\n      0x1f\n        /* \"#utility.yul\":494:507   */\n      dup4\n      add\n      not(0x1f)\n        /* \"#utility.yul\":490:512   */\n      swap1\n      dup2\n      and\n        /* \"#utility.yul\":514:516   */\n      0x3f\n        /* \"#utility.yul\":486:517   */\n      add\n        /* \"#utility.yul\":482:522   */\n      and\n        /* \"#utility.yul\":470:523   */\n      dup2\n      add\n      swap1\n        /* \"#utility.yul\":538:556   */\n      dup3\n      dup3\n      gt\n        /* \"#utility.yul\":558:580   */\n      dup2\n      dup4\n      lt\n        /* \"#utility.yul\":535:581   */\n      or\n        /* \"#utility.yul\":532:604   */\n      iszero\n      tag_80\n      jumpi\n        /* \"#utility.yul\":584:602   */\n      tag_80\n      tag_67\n      jump\t// in\n    tag_80:\n        /* \"#utility.yul\":624:634   */\n      dup2\n        /* \"#utility.yul\":620:622   */\n      0x40\n        /* \"#utility.yul\":613:635   */\n      mstore\n        /* \"#utility.yul\":659:661   */\n      dup4\n        /* \"#utility.yul\":651:657   */\n      dup2\n        /* \"#utility.yul\":644:662   */\n      mstore\n        /* \"#utility.yul\":705:708   */\n      dup7\n        /* \"#utility.yul\":698:702   */\n      0x20\n        /* \"#utility.yul\":693:695   */\n      dup6\n        /* \"#utility.yul\":685:691   */\n      dup9\n        /* \"#utility.yul\":681:696   */\n      add\n        /* \"#utility.yul\":677:703   */\n      add\n        /* \"#utility.yul\":674:709   */\n      gt\n        /* \"#utility.yul\":671:726   */\n      iszero\n      tag_81\n      jumpi\n        /* \"#utility.yul\":722:723   */\n      0x00\n        /* \"#utility.yul\":719:720   */\n      dup1\n        /* \"#utility.yul\":712:724   */\n      revert\n        /* \"#utility.yul\":671:726   */\n    tag_81:\n        /* \"#utility.yul\":786:788   */\n      dup4\n        /* \"#utility.yul\":779:783   */\n      0x20\n        /* \"#utility.yul\":771:777   */\n      dup8\n        /* \"#utility.yul\":767:784   */\n      add\n        /* \"#utility.yul\":760:764   */\n      0x20\n        /* \"#utility.yul\":752:758   */\n      dup4\n        /* \"#utility.yul\":748:765   */\n      add\n        /* \"#utility.yul\":735:789   */\n      calldatacopy\n        /* \"#utility.yul\":833:834   */\n      0x00\n        /* \"#utility.yul\":826:830   */\n      0x20\n        /* \"#utility.yul\":821:823   */\n      dup6\n        /* \"#utility.yul\":813:819   */\n      dup4\n        /* \"#utility.yul\":809:824   */\n      add\n        /* \"#utility.yul\":805:831   */\n      add\n        /* \"#utility.yul\":798:835   */\n      mstore\n        /* \"#utility.yul\":853:859   */\n      dup1\n        /* \"#utility.yul\":844:859   */\n      swap5\n      pop\n      pop\n      pop\n      pop\n      pop\n        /* \"#utility.yul\":146:865   */\n      swap3\n      swap2\n      pop\n      pop\n      jump\t// out\n        /* \"#utility.yul\":870:1613   */\n    tag_9:\n        /* \"#utility.yul\":977:983   */\n      0x00\n        /* \"#utility.yul\":985:991   */\n      dup1\n        /* \"#utility.yul\":993:999   */\n      0x00\n        /* \"#utility.yul\":1046:1048   */\n      0x60\n        /* \"#utility.yul\":1034:1043   */\n      dup5\n        /* \"#utility.yul\":1025:1032   */\n      dup7\n        /* \"#utility.yul\":1021:1044   */\n      sub\n        /* \"#utility.yul\":1017:1049   */\n      slt\n        /* \"#utility.yul\":1014:1066   */\n      iszero\n      tag_83\n      jumpi\n        /* \"#utility.yul\":1062:1063   */\n      0x00\n        /* \"#utility.yul\":1059:1060   */\n      dup1\n        /* \"#utility.yul\":1052:1064   */\n      revert\n        /* \"#utility.yul\":1014:1066   */\n    tag_83:\n        /* \"#utility.yul\":1102:1111   */\n      dup4\n        /* \"#utility.yul\":1089:1112   */\n      calldataload\n        /* \"#utility.yul\":1131:1149   */\n      0xffffffffffffffff\n        /* \"#utility.yul\":1172:1174   */\n      dup1\n        /* \"#utility.yul\":1164:1170   */\n      dup3\n        /* \"#utility.yul\":1161:1175   */\n      gt\n        /* \"#utility.yul\":1158:1192   */\n      iszero\n      tag_84\n      jumpi\n        /* \"#utility.yul\":1188:1189   */\n      0x00\n        /* \"#utility.yul\":1185:1186   */\n      dup1\n        /* \"#utility.yul\":1178:1190   */\n      revert\n        /* \"#utility.yul\":1158:1192   */\n    tag_84:\n        /* \"#utility.yul\":1211:1261   */\n      tag_85\n        /* \"#utility.yul\":1253:1260   */\n      dup8\n        /* \"#utility.yul\":1244:1250   */\n      dup4\n        /* \"#utility.yul\":1233:1242   */\n      dup9\n        /* \"#utility.yul\":1229:1251   */\n      add\n        /* \"#utility.yul\":1211:1261   */\n      tag_68\n      jump\t// in\n    tag_85:\n        /* \"#utility.yul\":1201:1261   */\n      swap5\n      pop\n        /* \"#utility.yul\":1314:1316   */\n      0x20\n        /* \"#utility.yul\":1303:1312   */\n      dup7\n        /* \"#utility.yul\":1299:1317   */\n      add\n        /* \"#utility.yul\":1286:1318   */\n      calldataload\n        /* \"#utility.yul\":1270:1318   */\n      swap2\n      pop\n        /* \"#utility.yul\":1343:1345   */\n      dup1\n        /* \"#utility.yul\":1333:1341   */\n      dup3\n        /* \"#utility.yul\":1330:1346   */\n      gt\n        /* \"#utility.yul\":1327:1363   */\n      iszero\n      tag_86\n      jumpi\n        /* \"#utility.yul\":1359:1360   */\n      0x00\n        /* \"#utility.yul\":1356:1357   */\n      dup1\n        /* \"#utility.yul\":1349:1361   */\n      revert\n        /* \"#utility.yul\":1327:1363   */\n    tag_86:\n        /* \"#utility.yul\":1382:1434   */\n      tag_87\n        /* \"#utility.yul\":1426:1433   */\n      dup8\n        /* \"#utility.yul\":1415:1423   */\n      dup4\n        /* \"#utility.yul\":1404:1413   */\n      dup9\n        /* \"#utility.yul\":1400:1424   */\n      add\n        /* \"#utility.yul\":1382:1434   */\n      tag_68\n      jump\t// in\n    tag_87:\n        /* \"#utility.yul\":1372:1434   */\n      swap4\n      pop\n        /* \"#utility.yul\":1487:1489   */\n      0x40\n        /* \"#utility.yul\":1476:1485   */\n      dup7\n        /* \"#utility.yul\":1472:1490   */\n      add\n        /* \"#utility.yul\":1459:1491   */\n      calldataload\n        /* \"#utility.yul\":1443:1491   */\n      swap2\n      pop\n        /* \"#utility.yul\":1516:1518   */\n      dup1\n        /* \"#utility.yul\":1506:1514   */\n      dup3\n        /* \"#utility.yul\":1503:1519   */\n      gt\n        /* \"#utility.yul\":1500:1536   */\n      iszero\n      tag_88\n      jumpi\n        /* \"#utility.yul\":1532:1533   */\n      0x00\n        /* \"#utility.yul\":1529:1530   */\n      dup1\n        /* \"#utility.yul\":1522:1534   */\n      revert\n        /* \"#utility.yul\":1500:1536   */\n    tag_88:\n      pop\n        /* \"#utility.yul\":1555:1607   */\n      tag_89\n        /* \"#utility.yul\":1599:1606   */\n      dup7\n        /* \"#utility.yul\":1588:1596   */\n      dup3\n        /* \"#utility.yul\":1577:1586   */\n      dup8\n        /* \"#utility.yul\":1573:1597   */\n      add\n        /* \"#utility.yul\":1555:1607   */\n      tag_68\n      jump\t// in\n    tag_89:\n        /* \"#utility.yul\":1545:1607   */\n      swap2\n      pop\n      pop\n        /* \"#utility.yul\":870:1613   */\n      swap3\n      pop\n      swap3\n      pop\n      swap3\n      jump\t// out\n        /* \"#utility.yul\":1618:1798   */\n    tag_13:\n        /* \"#utility.yul\":1677:1683   */\n      0x00\n        /* \"#utility.yul\":1730:1732   */\n      0x20\n        /* \"#utility.yul\":1718:1727   */\n      dup3\n        /* \"#utility.yul\":1709:1716   */\n      dup5\n        /* \"#utility.yul\":1705:1728   */\n      sub\n        /* \"#utility.yul\":1701:1733   */\n      slt\n        /* \"#utility.yul\":1698:1750   */\n      iszero\n      tag_91\n      jumpi\n        /* \"#utility.yul\":1746:1747   */\n      0x00\n        /* \"#utility.yul\":1743:1744   */\n      dup1\n        /* \"#utility.yul\":1736:1748   */\n      revert\n        /* \"#utility.yul\":1698:1750   */\n    tag_91:\n      pop\n        /* \"#utility.yul\":1769:1792   */\n      calldataload\n      swap2\n        /* \"#utility.yul\":1618:1798   */\n      swap1\n      pop\n      jump\t// out\n        /* \"#utility.yul\":1803:2092   */\n    tag_69:\n        /* \"#utility.yul\":1845:1848   */\n      0x00\n        /* \"#utility.yul\":1883:1888   */\n      dup2\n        /* \"#utility.yul\":1877:1889   */\n      mload\n        /* \"#utility.yul\":1910:1916   */\n      dup1\n        /* \"#utility.yul\":1905:1908   */\n      dup5\n        /* \"#utility.yul\":1898:1917   */\n      mstore\n        /* \"#utility.yul\":1966:1972   */\n      dup1\n        /* \"#utility.yul\":1959:1963   */\n      0x20\n        /* \"#utility.yul\":1952:1957   */\n      dup5\n        /* \"#utility.yul\":1948:1964   */\n      add\n        /* \"#utility.yul\":1941:1945   */\n      0x20\n        /* \"#utility.yul\":1936:1939   */\n      dup7\n        /* \"#utility.yul\":1932:1946   */\n      add\n        /* \"#utility.yul\":1926:1973   */\n      mcopy\n        /* \"#utility.yul\":2018:2019   */\n      0x00\n        /* \"#utility.yul\":2011:2015   */\n      0x20\n        /* \"#utility.yul\":2002:2008   */\n      dup3\n        /* \"#utility.yul\":1997:2000   */\n      dup7\n        /* \"#utility.yul\":1993:2009   */\n      add\n        /* \"#utility.yul\":1989:2016   */\n      add\n        /* \"#utility.yul\":1982:2020   */\n      mstore\n        /* \"#utility.yul\":2081:2085   */\n      0x20\n        /* \"#utility.yul\":2074:2076   */\n      0x1f\n        /* \"#utility.yul\":2070:2077   */\n      not\n        /* \"#utility.yul\":2065:2067   */\n      0x1f\n        /* \"#utility.yul\":2057:2063   */\n      dup4\n        /* \"#utility.yul\":2053:2068   */\n      add\n        /* \"#utility.yul\":2049:2078   */\n      and\n        /* \"#utility.yul\":2044:2047   */\n      dup6\n        /* \"#utility.yul\":2040:2079   */\n      add\n        /* \"#utility.yul\":2036:2086   */\n      add\n        /* \"#utility.yul\":2029:2086   */\n      swap2\n      pop\n      pop\n        /* \"#utility.yul\":1803:2092   */\n      swap3\n      swap2\n      pop\n      pop\n      jump\t// out\n        /* \"#utility.yul\":2097:2716   */\n    tag_16:\n        /* \"#utility.yul\":2370:2376   */\n      dup5\n        /* \"#utility.yul\":2359:2368   */\n      dup2\n        /* \"#utility.yul\":2352:2377   */\n      mstore\n        /* \"#utility.yul\":2413:2416   */\n      0x80\n        /* \"#utility.yul\":2408:2410   */\n      0x20\n        /* \"#utility.yul\":2397:2406   */\n      dup3\n        /* \"#utility.yul\":2393:2411   */\n      add\n        /* \"#utility.yul\":2386:2417   */\n      mstore\n        /* \"#utility.yul\":2333:2337   */\n      0x00\n        /* \"#utility.yul\":2440:2486   */\n      tag_94\n        /* \"#utility.yul\":2481:2484   */\n      0x80\n        /* \"#utility.yul\":2470:2479   */\n      dup4\n        /* \"#utility.yul\":2466:2485   */\n      add\n        /* \"#utility.yul\":2458:2464   */\n      dup7\n        /* \"#utility.yul\":2440:2486   */\n      tag_69\n      jump\t// in\n    tag_94:\n        /* \"#utility.yul\":2534:2543   */\n      dup3\n        /* \"#utility.yul\":2526:2532   */\n      dup2\n        /* \"#utility.yul\":2522:2544   */\n      sub\n        /* \"#utility.yul\":2517:2519   */\n      0x40\n        /* \"#utility.yul\":2506:2515   */\n      dup5\n        /* \"#utility.yul\":2502:2520   */\n      add\n        /* \"#utility.yul\":2495:2545   */\n      mstore\n        /* \"#utility.yul\":2568:2601   */\n      tag_95\n        /* \"#utility.yul\":2594:2600   */\n      dup2\n        /* \"#utility.yul\":2586:2592   */\n      dup7\n        /* \"#utility.yul\":2568:2601   */\n      tag_69\n      jump\t// in\n    tag_95:\n        /* \"#utility.yul\":2554:2601   */\n      swap1\n      pop\n        /* \"#utility.yul\":2649:2658   */\n      dup3\n        /* \"#utility.yul\":2641:2647   */\n      dup2\n        /* \"#utility.yul\":2637:2659   */\n      sub\n        /* \"#utility.yul\":2632:2634   */\n      0x60\n        /* \"#utility.yul\":2621:2630   */\n      dup5\n        /* \"#utility.yul\":2617:2635   */\n      add\n        /* \"#utility.yul\":2610:2660   */\n      mstore\n        /* \"#utility.yul\":2677:2710   */\n      tag_96\n        /* \"#utility.yul\":2703:2709   */\n      dup2\n        /* \"#utility.yul\":2695:2701   */\n      dup6\n        /* \"#utility.yul\":2677:2710   */\n      tag_69\n      jump\t// in\n    tag_96:\n        /* \"#utility.yul\":2669:2710   */\n      swap8\n        /* \"#utility.yul\":2097:2716   */\n      swap7\n      pop\n      pop\n      pop\n      pop\n      pop\n      pop\n      pop\n      jump\t// out\n        /* \"#utility.yul\":2721:3514   */\n    tag_21:\n        /* \"#utility.yul\":2896:2898   */\n      0x20\n        /* \"#utility.yul\":2885:2894   */\n      dup2\n        /* \"#utility.yul\":2878:2899   */\n      mstore\n        /* \"#utility.yul\":2941:2947   */\n      dup2\n        /* \"#utility.yul\":2935:2948   */\n      mload\n        /* \"#utility.yul\":2930:2932   */\n      0x20\n        /* \"#utility.yul\":2919:2928   */\n      dup3\n        /* \"#utility.yul\":2915:2933   */\n      add\n        /* \"#utility.yul\":2908:2949   */\n      mstore\n        /* \"#utility.yul\":2859:2863   */\n      0x00\n        /* \"#utility.yul\":2996:2998   */\n      0x20\n        /* \"#utility.yul\":2988:2994   */\n      dup4\n        /* \"#utility.yul\":2984:2999   */\n      add\n        /* \"#utility.yul\":2978:3000   */\n      mload\n        /* \"#utility.yul\":3036:3040   */\n      0x80\n        /* \"#utility.yul\":3031:3033   */\n      0x40\n        /* \"#utility.yul\":3020:3029   */\n      dup5\n        /* \"#utility.yul\":3016:3034   */\n      add\n        /* \"#utility.yul\":3009:3041   */\n      mstore\n        /* \"#utility.yul\":3064:3116   */\n      tag_98\n        /* \"#utility.yul\":3111:3114   */\n      0xa0\n        /* \"#utility.yul\":3100:3109   */\n      dup5\n        /* \"#utility.yul\":3096:3115   */\n      add\n        /* \"#utility.yul\":3082:3094   */\n      dup3\n        /* \"#utility.yul\":3064:3116   */\n      tag_69\n      jump\t// in\n    tag_98:\n        /* \"#utility.yul\":3050:3116   */\n      swap1\n      pop\n        /* \"#utility.yul\":3165:3167   */\n      0x40\n        /* \"#utility.yul\":3157:3163   */\n      dup5\n        /* \"#utility.yul\":3153:3168   */\n      add\n        /* \"#utility.yul\":3147:3169   */\n      mload\n        /* \"#utility.yul\":3192:3194   */\n      0x1f\n        /* \"#utility.yul\":3188:3195   */\n      not\n        /* \"#utility.yul\":3259:3261   */\n      dup1\n        /* \"#utility.yul\":3247:3256   */\n      dup6\n        /* \"#utility.yul\":3239:3245   */\n      dup5\n        /* \"#utility.yul\":3235:3257   */\n      sub\n        /* \"#utility.yul\":3231:3262   */\n      add\n        /* \"#utility.yul\":3226:3228   */\n      0x60\n        /* \"#utility.yul\":3215:3224   */\n      dup7\n        /* \"#utility.yul\":3211:3229   */\n      add\n        /* \"#utility.yul\":3204:3263   */\n      mstore\n        /* \"#utility.yul\":3286:3327   */\n      tag_99\n        /* \"#utility.yul\":3320:3326   */\n      dup4\n        /* \"#utility.yul\":3304:3318   */\n      dup4\n        /* \"#utility.yul\":3286:3327   */\n      tag_69\n      jump\t// in\n    tag_99:\n        /* \"#utility.yul\":3272:3327   */\n      swap3\n      pop\n        /* \"#utility.yul\":3376:3378   */\n      0x60\n        /* \"#utility.yul\":3368:3374   */\n      dup7\n        /* \"#utility.yul\":3364:3379   */\n      add\n        /* \"#utility.yul\":3358:3380   */\n      mload\n        /* \"#utility.yul\":3336:3380   */\n      swap2\n      pop\n        /* \"#utility.yul\":3446:3448   */\n      dup1\n        /* \"#utility.yul\":3434:3443   */\n      dup6\n        /* \"#utility.yul\":3426:3432   */\n      dup5\n        /* \"#utility.yul\":3422:3444   */\n      sub\n        /* \"#utility.yul\":3418:3449   */\n      add\n        /* \"#utility.yul\":3411:3415   */\n      0x80\n        /* \"#utility.yul\":3400:3409   */\n      dup7\n        /* \"#utility.yul\":3396:3416   */\n      add\n        /* \"#utility.yul\":3389:3450   */\n      mstore\n      pop\n        /* \"#utility.yul\":3467:3508   */\n      tag_100\n        /* \"#utility.yul\":3501:3507   */\n      dup3\n        /* \"#utility.yul\":3485:3499   */\n      dup3\n        /* \"#utility.yul\":3467:3508   */\n      tag_69\n      jump\t// in\n    tag_100:\n        /* \"#utility.yul\":3459:3508   */\n      swap6\n        /* \"#utility.yul\":2721:3514   */\n      swap5\n      pop\n      pop\n      pop\n      pop\n      pop\n      jump\t// out\n        /* \"#utility.yul\":3701:3933   */\n    tag_28:\n        /* \"#utility.yul\":3740:3743   */\n      0x00\n        /* \"#utility.yul\":3761:3778   */\n      0x01\n      dup3\n      add\n        /* \"#utility.yul\":3758:3898   */\n      tag_103\n      jumpi\n        /* \"#utility.yul\":3820:3830   */\n      0x4e487b71\n        /* \"#utility.yul\":3815:3818   */\n      0xe0\n        /* \"#utility.yul\":3811:3831   */\n      shl\n        /* \"#utility.yul\":3808:3809   */\n      0x00\n        /* \"#utility.yul\":3801:3832   */\n      mstore\n        /* \"#utility.yul\":3855:3859   */\n      0x11\n        /* \"#utility.yul\":3852:3853   */\n      0x04\n        /* \"#utility.yul\":3845:3860   */\n      mstore\n        /* \"#utility.yul\":3883:3887   */\n      0x24\n        /* \"#utility.yul\":3880:3881   */\n      0x00\n        /* \"#utility.yul\":3873:3888   */\n      revert\n        /* \"#utility.yul\":3758:3898   */\n    tag_103:\n      pop\n        /* \"#utility.yul\":3925:3926   */\n      0x01\n        /* \"#utility.yul\":3914:3927   */\n      add\n      swap1\n        /* \"#utility.yul\":3701:3933   */\n      jump\t// out\n        /* \"#utility.yul\":3938:4318   */\n    tag_34:\n        /* \"#utility.yul\":4017:4018   */\n      0x01\n        /* \"#utility.yul\":4013:4025   */\n      dup2\n      dup2\n      shr\n      swap1\n        /* \"#utility.yul\":4060:4072   */\n      dup3\n      and\n      dup1\n        /* \"#utility.yul\":4081:4142   */\n      tag_105\n      jumpi\n        /* \"#utility.yul\":4135:4139   */\n      0x7f\n        /* \"#utility.yul\":4127:4133   */\n      dup3\n        /* \"#utility.yul\":4123:4140   */\n      and\n        /* \"#utility.yul\":4113:4140   */\n      swap2\n      pop\n        /* \"#utility.yul\":4081:4142   */\n    tag_105:\n        /* \"#utility.yul\":4188:4190   */\n      0x20\n        /* \"#utility.yul\":4180:4186   */\n      dup3\n        /* \"#utility.yul\":4177:4191   */\n      lt\n        /* \"#utility.yul\":4157:4175   */\n      dup2\n        /* \"#utility.yul\":4154:4192   */\n      sub\n        /* \"#utility.yul\":4151:4312   */\n      tag_106\n      jumpi\n        /* \"#utility.yul\":4234:4244   */\n      0x4e487b71\n        /* \"#utility.yul\":4229:4232   */\n      0xe0\n        /* \"#utility.yul\":4225:4245   */\n      shl\n        /* \"#utility.yul\":4222:4223   */\n      0x00\n        /* \"#utility.yul\":4215:4246   */\n      mstore\n        /* \"#utility.yul\":4269:4273   */\n      0x22\n        /* \"#utility.yul\":4266:4267   */\n      0x04\n        /* \"#utility.yul\":4259:4274   */\n      mstore\n        /* \"#utility.yul\":4297:4301   */\n      0x24\n        /* \"#utility.yul\":4294:4295   */\n      0x00\n        /* \"#utility.yul\":4287:4302   */\n      revert\n        /* \"#utility.yul\":4151:4312   */\n    tag_106:\n      pop\n        /* \"#utility.yul\":3938:4318   */\n      swap2\n      swap1\n      pop\n      jump\t// out\n        /* \"#utility.yul\":4449:4967   */\n    tag_71:\n        /* \"#utility.yul\":4551:4553   */\n      0x1f\n        /* \"#utility.yul\":4546:4549   */\n      dup3\n        /* \"#utility.yul\":4543:4554   */\n      gt\n        /* \"#utility.yul\":4540:4961   */\n      iszero\n      tag_109\n      jumpi\n        /* \"#utility.yul\":4587:4592   */\n      dup1\n        /* \"#utility.yul\":4584:4585   */\n      0x00\n        /* \"#utility.yul\":4577:4593   */\n      mstore\n        /* \"#utility.yul\":4631:4635   */\n      0x20\n        /* \"#utility.yul\":4628:4629   */\n      0x00\n        /* \"#utility.yul\":4618:4636   */\n      keccak256\n        /* \"#utility.yul\":4701:4703   */\n      0x1f\n        /* \"#utility.yul\":4689:4699   */\n      dup5\n        /* \"#utility.yul\":4685:4704   */\n      add\n        /* \"#utility.yul\":4682:4683   */\n      0x05\n        /* \"#utility.yul\":4678:4705   */\n      shr\n        /* \"#utility.yul\":4672:4676   */\n      dup2\n        /* \"#utility.yul\":4668:4706   */\n      add\n        /* \"#utility.yul\":4737:4741   */\n      0x20\n        /* \"#utility.yul\":4725:4735   */\n      dup6\n        /* \"#utility.yul\":4722:4742   */\n      lt\n        /* \"#utility.yul\":4719:4766   */\n      iszero\n      tag_110\n      jumpi\n      pop\n        /* \"#utility.yul\":4760:4764   */\n      dup1\n        /* \"#utility.yul\":4719:4766   */\n    tag_110:\n        /* \"#utility.yul\":4815:4817   */\n      0x1f\n        /* \"#utility.yul\":4810:4813   */\n      dup5\n        /* \"#utility.yul\":4806:4818   */\n      add\n        /* \"#utility.yul\":4803:4804   */\n      0x05\n        /* \"#utility.yul\":4799:4819   */\n      shr\n        /* \"#utility.yul\":4793:4797   */\n      dup3\n        /* \"#utility.yul\":4789:4820   */\n      add\n        /* \"#utility.yul\":4779:4820   */\n      swap2\n      pop\n        /* \"#utility.yul\":4870:4951   */\n    tag_111:\n        /* \"#utility.yul\":4888:4890   */\n      dup2\n        /* \"#utility.yul\":4881:4886   */\n      dup2\n        /* \"#utility.yul\":4878:4891   */\n      lt\n        /* \"#utility.yul\":4870:4951   */\n      iszero\n      tag_113\n      jumpi\n        /* \"#utility.yul\":4947:4948   */\n      0x00\n        /* \"#utility.yul\":4933:4949   */\n      dup2\n      sstore\n        /* \"#utility.yul\":4914:4915   */\n      0x01\n        /* \"#utility.yul\":4903:4916   */\n      add\n        /* \"#utility.yul\":4870:4951   */\n      jump(tag_111)\n    tag_113:\n        /* \"#utility.yul\":4874:4877   */\n      pop\n      pop\n        /* \"#utility.yul\":4540:4961   */\n    tag_109:\n        /* \"#utility.yul\":4449:4967   */\n      pop\n      pop\n      pop\n      jump\t// out\n        /* \"#utility.yul\":5143:6488   */\n    tag_30:\n        /* \"#utility.yul\":5269:5272   */\n      dup2\n        /* \"#utility.yul\":5263:5273   */\n      mload\n        /* \"#utility.yul\":5296:5314   */\n      0xffffffffffffffff\n        /* \"#utility.yul\":5288:5294   */\n      dup2\n        /* \"#utility.yul\":5285:5315   */\n      gt\n        /* \"#utility.yul\":5282:5338   */\n      iszero\n      tag_117\n      jumpi\n        /* \"#utility.yul\":5318:5336   */\n      tag_117\n      tag_67\n      jump\t// in\n    tag_117:\n        /* \"#utility.yul\":5347:5444   */\n      tag_118\n        /* \"#utility.yul\":5437:5443   */\n      dup2\n        /* \"#utility.yul\":5397:5435   */\n      tag_119\n        /* \"#utility.yul\":5429:5433   */\n      dup5\n        /* \"#utility.yul\":5423:5434   */\n      sload\n        /* \"#utility.yul\":5397:5435   */\n      tag_34\n      jump\t// in\n    tag_119:\n        /* \"#utility.yul\":5391:5395   */\n      dup5\n        /* \"#utility.yul\":5347:5444   */\n      tag_71\n      jump\t// in\n    tag_118:\n        /* \"#utility.yul\":5499:5503   */\n      0x20\n      dup1\n        /* \"#utility.yul\":5556:5558   */\n      0x1f\n        /* \"#utility.yul\":5545:5559   */\n      dup4\n      gt\n        /* \"#utility.yul\":5573:5574   */\n      0x01\n        /* \"#utility.yul\":5568:6231   */\n      dup2\n      eq\n      tag_121\n      jumpi\n        /* \"#utility.yul\":6275:6276   */\n      0x00\n        /* \"#utility.yul\":6292:6298   */\n      dup5\n        /* \"#utility.yul\":6289:6378   */\n      iszero\n      tag_122\n      jumpi\n      pop\n        /* \"#utility.yul\":6344:6363   */\n      dup6\n      dup4\n      add\n        /* \"#utility.yul\":6338:6364   */\n      mload\n        /* \"#utility.yul\":6289:6378   */\n    tag_122:\n      not(0x00)\n        /* \"#utility.yul\":5100:5101   */\n      0x03\n        /* \"#utility.yul\":5096:5107   */\n      dup7\n      swap1\n      shl\n        /* \"#utility.yul\":5092:5116   */\n      shr\n        /* \"#utility.yul\":5088:5117   */\n      not\n        /* \"#utility.yul\":5078:5118   */\n      and\n        /* \"#utility.yul\":5124:5125   */\n      0x01\n        /* \"#utility.yul\":5120:5131   */\n      dup6\n      swap1\n      shl\n        /* \"#utility.yul\":5075:5132   */\n      or\n        /* \"#utility.yul\":6391:6472   */\n      dup6\n      sstore\n        /* \"#utility.yul\":5538:6482   */\n      jump(tag_32)\n        /* \"#utility.yul\":5568:6231   */\n    tag_121:\n        /* \"#utility.yul\":4396:4397   */\n      0x00\n        /* \"#utility.yul\":4389:4403   */\n      dup6\n      dup2\n      mstore\n        /* \"#utility.yul\":4433:4437   */\n      0x20\n        /* \"#utility.yul\":4420:4438   */\n      dup2\n      keccak256\n      not(0x1f)\n        /* \"#utility.yul\":5604:5624   */\n      dup7\n      and\n      swap2\n        /* \"#utility.yul\":5722:5958   */\n    tag_125:\n        /* \"#utility.yul\":5736:5743   */\n      dup3\n        /* \"#utility.yul\":5733:5734   */\n      dup2\n        /* \"#utility.yul\":5730:5744   */\n      lt\n        /* \"#utility.yul\":5722:5958   */\n      iszero\n      tag_127\n      jumpi\n        /* \"#utility.yul\":5825:5844   */\n      dup9\n      dup7\n      add\n        /* \"#utility.yul\":5819:5845   */\n      mload\n        /* \"#utility.yul\":5804:5846   */\n      dup3\n      sstore\n        /* \"#utility.yul\":5917:5944   */\n      swap5\n      dup5\n      add\n      swap5\n        /* \"#utility.yul\":5885:5886   */\n      0x01\n        /* \"#utility.yul\":5873:5887   */\n      swap1\n      swap2\n      add\n      swap1\n        /* \"#utility.yul\":5752:5771   */\n      dup5\n      add\n        /* \"#utility.yul\":5722:5958   */\n      jump(tag_125)\n    tag_127:\n        /* \"#utility.yul\":5726:5729   */\n      pop\n        /* \"#utility.yul\":5986:5992   */\n      dup6\n        /* \"#utility.yul\":5977:5984   */\n      dup3\n        /* \"#utility.yul\":5974:5993   */\n      lt\n        /* \"#utility.yul\":5971:6172   */\n      iszero\n      tag_128\n      jumpi\n        /* \"#utility.yul\":6047:6066   */\n      dup8\n      dup6\n      add\n        /* \"#utility.yul\":6041:6067   */\n      mload\n      not(0x00)\n        /* \"#utility.yul\":6130:6131   */\n      0x03\n        /* \"#utility.yul\":6126:6140   */\n      dup9\n      swap1\n      shl\n        /* \"#utility.yul\":6142:6145   */\n      0xf8\n        /* \"#utility.yul\":6122:6146   */\n      and\n        /* \"#utility.yul\":6118:6155   */\n      shr\n        /* \"#utility.yul\":6114:6156   */\n      not\n        /* \"#utility.yul\":6099:6157   */\n      and\n        /* \"#utility.yul\":6084:6158   */\n      dup2\n      sstore\n        /* \"#utility.yul\":5971:6172   */\n    tag_128:\n      pop\n      pop\n      pop\n      pop\n      pop\n        /* \"#utility.yul\":6218:6219   */\n      0x01\n        /* \"#utility.yul\":6202:6216   */\n      swap1\n      dup2\n      shl\n        /* \"#utility.yul\":6198:6220   */\n      add\n        /* \"#utility.yul\":6185:6221   */\n      swap1\n      sstore\n      pop\n        /* \"#utility.yul\":5143:6488   */\n      jump\t// out\n\n    auxdata: 0xa26469706673582212206193591016a14536e69fbe0d5d6fd291513d2d197d8b9235a4932887c4de3c1364736f6c63430008190033\n}\n",
    "bytecode": {
      "linkReferences": {},
      "object": "6080604052348015600e575f80fd5b506108c08061001c5f395ff3fe608060405234801561000f575f80fd5b506004361061004a575f3560e01c80633406b7181461004e5780637acc0b2014610063578063b9db15b41461008f578063e0f6ef87146100af575b5f80fd5b61006161005c3660046105ac565b6100c6565b005b61007661007136600461062e565b610154565b6040516100869493929190610673565b60405180910390f35b6100a261009d36600461062e565b61030e565b60405161008691906106bc565b6100b860015481565b604051908152602001610086565b60018054905f6100d583610726565b909155505060408051608081018252600180548083526020808401888152848601889052606085018790525f928352908290529390208251815592519192919082019061012290826107ce565b506040820151600282019061013790826107ce565b506060820151600382019061014c90826107ce565b505050505050565b5f60208190529081526040902080546001820180549192916101759061074a565b80601f01602080910402602001604051908101604052809291908181526020018280546101a19061074a565b80156101ec5780601f106101c3576101008083540402835291602001916101ec565b820191905f5260205f20905b8154815290600101906020018083116101cf57829003601f168201915b5050505050908060020180546102019061074a565b80601f016020809104026020016040519081016040528092919081815260200182805461022d9061074a565b80156102785780601f1061024f57610100808354040283529160200191610278565b820191905f5260205f20905b81548152906001019060200180831161025b57829003601f168201915b50505050509080600301805461028d9061074a565b80601f01602080910402602001604051908101604052809291908181526020018280546102b99061074a565b80156103045780601f106102db57610100808354040283529160200191610304565b820191905f5260205f20905b8154815290600101906020018083116102e757829003601f168201915b5050505050905084565b61033860405180608001604052805f81526020016060815260200160608152602001606081525090565b5f82815260208181526040918290208251608081019093528054835260018101805491928401916103689061074a565b80601f01602080910402602001604051908101604052809291908181526020018280546103949061074a565b80156103df5780601f106103b6576101008083540402835291602001916103df565b820191905f5260205f20905b8154815290600101906020018083116103c257829003601f168201915b505050505081526020016002820180546103f89061074a565b80601f01602080910402602001604051908101604052809291908181526020018280546104249061074a565b801561046f5780601f106104465761010080835404028352916020019161046f565b820191905f5260205f20905b81548152906001019060200180831161045257829003601f168201915b505050505081526020016003820180546104889061074a565b80601f01602080910402602001604051908101604052809291908181526020018280546104b49061074a565b80156104ff5780601f106104d6576101008083540402835291602001916104ff565b820191905f5260205f20905b8154815290600101906020018083116104e257829003601f168201915b5050505050815250509050919050565b634e487b7160e01b5f52604160045260245ffd5b5f82601f830112610532575f80fd5b813567ffffffffffffffff8082111561054d5761054d61050f565b604051601f8301601f19908116603f011681019082821181831017156105755761057561050f565b8160405283815286602085880101111561058d575f80fd5b836020870160208301375f602085830101528094505050505092915050565b5f805f606084860312156105be575f80fd5b833567ffffffffffffffff808211156105d5575f80fd5b6105e187838801610523565b945060208601359150808211156105f6575f80fd5b61060287838801610523565b93506040860135915080821115610617575f80fd5b5061062486828701610523565b9150509250925092565b5f6020828403121561063e575f80fd5b5035919050565b5f81518084528060208401602086015e5f602082860101526020601f19601f83011685010191505092915050565b848152608060208201525f61068b6080830186610645565b828103604084015261069d8186610645565b905082810360608401526106b18185610645565b979650505050505050565b60208152815160208201525f6020830151608060408401526106e160a0840182610645565b90506040840151601f19808584030160608601526106ff8383610645565b925060608601519150808584030160808601525061071d8282610645565b95945050505050565b5f6001820161074357634e487b7160e01b5f52601160045260245ffd5b5060010190565b600181811c9082168061075e57607f821691505b60208210810361077c57634e487b7160e01b5f52602260045260245ffd5b50919050565b601f8211156107c957805f5260205f20601f840160051c810160208510156107a75750805b601f840160051c820191505b818110156107c6575f81556001016107b3565b50505b505050565b815167ffffffffffffffff8111156107e8576107e861050f565b6107fc816107f6845461074a565b84610782565b602080601f83116001811461082f575f84156108185750858301515b5f19600386901b1c1916600185901b17855561014c565b5f85815260208120601f198616915b8281101561085d5788860151825594840194600190910190840161083e565b508582101561087a57878501515f19600388901b60f8161c191681555b5050505050600190811b0190555056fea26469706673582212206193591016a14536e69fbe0d5d6fd291513d2d197d8b9235a4932887c4de3c1364736f6c63430008190033",
      "opcodes": "PUSH1 0x80 PUSH1 0x40 MSTORE CALLVALUE DUP1 ISZERO PUSH1 0xE JUMPI PUSH0 DUP1 REVERT JUMPDEST POP PUSH2 0x8C0 DUP1 PUSH2 0x1C PUSH0 CODECOPY PUSH0 RETURN INVALID PUSH1 0x80 PUSH1 0x40 MSTORE CALLVALUE DUP1 ISZERO PUSH2 0xF JUMPI PUSH0 DUP1 REVERT JUMPDEST POP PUSH1 0x4 CALLDATASIZE LT PUSH2 0x4A JUMPI PUSH0 CALLDATALOAD PUSH1 0xE0 SHR DUP1 PUSH4 0x3406B718 EQ PUSH2 0x4E JUMPI DUP1 PUSH4 0x7ACC0B20 EQ PUSH2 0x63 JUMPI DUP1 PUSH4 0xB9DB15B4 EQ PUSH2 0x8F JUMPI DUP1 PUSH4 0xE0F6EF87 EQ PUSH2 0xAF JUMPI JUMPDEST PUSH0 DUP1 REVERT JUMPDEST PUSH2 0x61 PUSH2 0x5C CALLDATASIZE PUSH1 0x4 PUSH2 0x5AC JUMP JUMPDEST PUSH2 0xC6 JUMP JUMPDEST STOP JUMPDEST PUSH2 0x76 PUSH2 0x71 CALLDATASIZE PUSH1 0x4 PUSH2 0x62E JUMP JUMPDEST PUSH2 0x154 JUMP JUMPDEST PUSH1 0x40 MLOAD PUSH2 0x86 SWAP5 SWAP4 SWAP3 SWAP2 SWAP1 PUSH2 0x673 JUMP JUMPDEST PUSH1 0x40 MLOAD DUP1 SWAP2 SUB SWAP1 RETURN JUMPDEST PUSH2 0xA2 PUSH2 0x9D CALLDATASIZE PUSH1 0x4 PUSH2 0x62E JUMP JUMPDEST PUSH2 0x30E JUMP JUMPDEST PUSH1 0x40 MLOAD PUSH2 0x86 SWAP2 SWAP1 PUSH2 0x6BC JUMP JUMPDEST PUSH2 0xB8 PUSH1 0x1 SLOAD DUP2 JUMP JUMPDEST PUSH1 0x40 MLOAD SWAP1 DUP2 MSTORE PUSH1 0x20 ADD PUSH2 0x86 JUMP JUMPDEST PUSH1 0x1 DUP1 SLOAD SWAP1 PUSH0 PUSH2 0xD5 DUP4 PUSH2 0x726 JUMP JUMPDEST SWAP1 SWAP2 SSTORE POP POP PUSH1 0x40 DUP1 MLOAD PUSH1 0x80 DUP2 ADD DUP3 MSTORE PUSH1 0x1 DUP1 SLOAD DUP1 DUP4 MSTORE PUSH1 0x20 DUP1 DUP5 ADD DUP9 DUP2 MSTORE DUP5 DUP7 ADD DUP9 SWAP1 MSTORE PUSH1 0x60 DUP6 ADD DUP8 SWAP1 MSTORE PUSH0 SWAP3 DUP4 MSTORE SWAP1 DUP3 SWAP1 MSTORE SWAP4 SWAP1 KECCAK256 DUP3 MLOAD DUP2 SSTORE SWAP3 MLOAD SWAP2 SWAP3 SWAP2 SWAP1 DUP3 ADD SWAP1 PUSH2 0x122 SWAP1 DUP3 PUSH2 0x7CE JUMP JUMPDEST POP PUSH1 0x40 DUP3 ADD MLOAD PUSH1 0x2 DUP3 ADD SWAP1 PUSH2 0x137 SWAP1 DUP3 PUSH2 0x7CE JUMP JUMPDEST POP PUSH1 0x60 DUP3 ADD MLOAD PUSH1 0x3 DUP3 ADD SWAP1 PUSH2 0x14C SWAP1 DUP3 PUSH2 0x7CE JUMP JUMPDEST POP POP POP POP POP POP JUMP JUMPDEST PUSH0 PUSH1 0x20 DUP2 SWAP1 MSTORE SWAP1 DUP2 MSTORE PUSH1 0x40 SWAP1 KECCAK256 DUP1 SLOAD PUSH1 0x1 DUP3 ADD DUP1 SLOAD SWAP2 SWAP3 SWAP2 PUSH2 0x175 SWAP1 PUSH2 0x74A JUMP JUMPDEST DUP1 PUSH1 0x1F ADD PUSH1 0x20 DUP1 SWAP2 DIV MUL PUSH1 0x20 ADD PUSH1 0x40 MLOAD SWAP1 DUP2 ADD PUSH1 0x40 MSTORE DUP1 SWAP3 SWAP2 SWAP1 DUP2 DUP2 MSTORE PUSH1 0x20 ADD DUP3 DUP1 SLOAD PUSH2 0x1A1 SWAP1 PUSH2 0x74A JUMP JUMPDEST DUP1 ISZERO PUSH2 0x1EC JUMPI DUP1 PUSH1 0x1F LT PUSH2 0x1C3 JUMPI PUSH2 0x100 DUP1 DUP4 SLOAD DIV MUL DUP4 MSTORE SWAP2 PUSH1 0x20 ADD SWAP2 PUSH2 0x1EC JUMP JUMPDEST DUP3 ADD SWAP2 SWAP1 PUSH0 MSTORE PUSH1 0x20 PUSH0 KECCAK256 SWAP1 JUMPDEST DUP2 SLOAD DUP2 MSTORE SWAP1 PUSH1 0x1 ADD SWAP1 PUSH1 0x20 ADD DUP1 DUP4 GT PUSH2 0x1CF JUMPI DUP3 SWAP1 SUB PUSH1 0x1F AND DUP3 ADD SWAP2 JUMPDEST POP POP POP POP POP SWAP1 DUP1 PUSH1 0x2 ADD DUP1 SLOAD PUSH2 0x201 SWAP1 PUSH2 0x74A JUMP JUMPDEST DUP1 PUSH1 0x1F ADD PUSH1 0x20 DUP1 SWAP2 DIV MUL PUSH1 0x20 ADD PUSH1 0x40 MLOAD SWAP1 DUP2 ADD PUSH1 0x40 MSTORE DUP1 SWAP3 SWAP2 SWAP1 DUP2 DUP2 MSTORE PUSH1 0x20 ADD DUP3 DUP1 SLOAD PUSH2 0x22D SWAP1 PUSH2 0x74A JUMP JUMPDEST DUP1 ISZERO PUSH2 0x278 JUMPI DUP1 PUSH1 0x1F LT PUSH2 0x24F JUMPI PUSH2 0x100 DUP1 DUP4 SLOAD DIV MUL DUP4 MSTORE SWAP2 PUSH1 0x20 ADD SWAP2 PUSH2 0x278 JUMP JUMPDEST DUP3 ADD SWAP2 SWAP1 PUSH0 MSTORE PUSH1 0x20 PUSH0 KECCAK256 SWAP1 JUMPDEST DUP2 SLOAD DUP2 MSTORE SWAP1 PUSH1 0x1 ADD SWAP1 PUSH1 0x20 ADD DUP1 DUP4 GT PUSH2 0x25B JUMPI DUP3 SWAP1 SUB PUSH1 0x1F AND DUP3 ADD SWAP2 JUMPDEST POP POP POP POP POP SWAP1 DUP1 PUSH1 0x3 ADD DUP1 SLOAD PUSH2 0x28D SWAP1 PUSH2 0x74A JUMP JUMPDEST DUP1 PUSH1 0x1F ADD PUSH1 0x20 DUP1 SWAP2 DIV MUL PUSH1 0x20 ADD PUSH1 0x40 MLOAD SWAP1 DUP2 ADD PUSH1 0x40 MSTORE DUP1 SWAP3 SWAP2 SWAP1 DUP2 DUP2 MSTORE PUSH1 0x20 ADD DUP3 DUP1 SLOAD PUSH2 0x2B9 SWAP1 PUSH2 0x74A JUMP JUMPDEST DUP1 ISZERO PUSH2 0x304 JUMPI DUP1 PUSH1 0x1F LT PUSH2 0x2DB JUMPI PUSH2 0x100 DUP1 DUP4 SLOAD DIV MUL DUP4 MSTORE SWAP2 PUSH1 0x20 ADD SWAP2 PUSH2 0x304 JUMP JUMPDEST DUP3 ADD SWAP2 SWAP1 PUSH0 MSTORE PUSH1 0x20 PUSH0 KECCAK256 SWAP1 JUMPDEST DUP2 SLOAD DUP2 MSTORE SWAP1 PUSH1 0x1 ADD SWAP1 PUSH1 0x20 ADD DUP1 DUP4 GT PUSH2 0x2E7 JUMPI DUP3 SWAP1 SUB PUSH1 0x1F AND DUP3 ADD SWAP2 JUMPDEST POP POP POP POP POP SWAP1 POP DUP5 JUMP JUMPDEST PUSH2 0x338 PUSH1 0x40 MLOAD DUP1 PUSH1 0x80 ADD PUSH1 0x40 MSTORE DUP1 PUSH0 DUP2 MSTORE PUSH1 0x20 ADD PUSH1 0x60 DUP2 MSTORE PUSH1 0x20 ADD PUSH1 0x60 DUP2 MSTORE PUSH1 0x20 ADD PUSH1 0x60 DUP2 MSTORE POP SWAP1 JUMP JUMPDEST PUSH0 DUP3 DUP2 MSTORE PUSH1 0x20 DUP2 DUP2 MSTORE PUSH1 0x40 SWAP2 DUP3 SWAP1 KECCAK256 DUP3 MLOAD PUSH1 0x80 DUP2 ADD SWAP1 SWAP4 MSTORE DUP1 SLOAD DUP4 MSTORE PUSH1 0x1 DUP2 ADD DUP1 SLOAD SWAP2 SWAP3 DUP5 ADD SWAP2 PUSH2 0x368 SWAP1 PUSH2 0x74A JUMP JUMPDEST DUP1 PUSH1 0x1F ADD PUSH1 0x20 DUP1 SWAP2 DIV MUL PUSH1 0x20 ADD PUSH1 0x40 MLOAD SWAP1 DUP2 ADD PUSH1 0x40 MSTORE DUP1 SWAP3 SWAP2 SWAP1 DUP2 DUP2 MSTORE PUSH1 0x20 ADD DUP3 DUP1 SLOAD PUSH2 0x394 SWAP1 PUSH2 0x74A JUMP JUMPDEST DUP1 ISZERO PUSH2 0x3DF JUMPI DUP1 PUSH1 0x1F LT PUSH2 0x3B6 JUMPI PUSH2 0x100 DUP1 DUP4 SLOAD DIV MUL DUP4 MSTORE SWAP2 PUSH1 0x20 ADD SWAP2 PUSH2 0x3DF JUMP JUMPDEST DUP3 ADD SWAP2 SWAP1 PUSH0 MSTORE PUSH1 0x20 PUSH0 KECCAK256 SWAP1 JUMPDEST DUP2 SLOAD DUP2 MSTORE SWAP1 PUSH1 0x1 ADD SWAP1 PUSH1 0x20 ADD DUP1 DUP4 GT PUSH2 0x3C2 JUMPI DUP3 SWAP1 SUB PUSH1 0x1F AND DUP3 ADD SWAP2 JUMPDEST POP POP POP POP POP DUP2 MSTORE PUSH1 0x20 ADD PUSH1 0x2 DUP3 ADD DUP1 SLOAD PUSH2 0x3F8 SWAP1 PUSH2 0x74A JUMP JUMPDEST DUP1 PUSH1 0x1F ADD PUSH1 0x20 DUP1 SWAP2 DIV MUL PUSH1 0x20 ADD PUSH1 0x40 MLOAD SWAP1 DUP2 ADD PUSH1 0x40 MSTORE DUP1 SWAP3 SWAP2 SWAP1 DUP2 DUP2 MSTORE PUSH1 0x20 ADD DUP3 DUP1 SLOAD PUSH2 0x424 SWAP1 PUSH2 0x74A JUMP JUMPDEST DUP1 ISZERO PUSH2 0x46F JUMPI DUP1 PUSH1 0x1F LT PUSH2 0x446 JUMPI PUSH2 0x100 DUP1 DUP4 SLOAD DIV MUL DUP4 MSTORE SWAP2 PUSH1 0x20 ADD SWAP2 PUSH2 0x46F JUMP JUMPDEST DUP3 ADD SWAP2 SWAP1 PUSH0 MSTORE PUSH1 0x20 PUSH0 KECCAK256 SWAP1 JUMPDEST DUP2 SLOAD DUP2 MSTORE SWAP1 PUSH1 0x1 ADD SWAP1 PUSH1 0x20 ADD DUP1 DUP4 GT PUSH2 0x452 JUMPI DUP3 SWAP1 SUB PUSH1 0x1F AND DUP3 ADD SWAP2 JUMPDEST POP POP POP POP POP DUP2 MSTORE PUSH1 0x20 ADD PUSH1 0x3 DUP3 ADD DUP1 SLOAD PUSH2 0x488 SWAP1 PUSH2 0x74A JUMP JUMPDEST DUP1 PUSH1 0x1F ADD PUSH1 0x20 DUP1 SWAP2 DIV MUL PUSH1 0x20 ADD PUSH1 0x40 MLOAD SWAP1 DUP2 ADD PUSH1 0x40 MSTORE DUP1 SWAP3 SWAP2 SWAP1 DUP2 DUP2 MSTORE PUSH1 0x20 ADD DUP3 DUP1 SLOAD PUSH2 0x4B4 SWAP1 PUSH2 0x74A JUMP JUMPDEST DUP1 ISZERO PUSH2 0x4FF JUMPI DUP1 PUSH1 0x1F LT PUSH2 0x4D6 JUMPI PUSH2 0x100 DUP1 DUP4 SLOAD DIV MUL DUP4 MSTORE SWAP2 PUSH1 0x20 ADD SWAP2 PUSH2 0x4FF JUMP JUMPDEST DUP3 ADD SWAP2 SWAP1 PUSH0 MSTORE PUSH1 0x20 PUSH0 KECCAK256 SWAP1 JUMPDEST DUP2 SLOAD DUP2 MSTORE SWAP1 PUSH1 0x1 ADD SWAP1 PUSH1 0x20 ADD DUP1 DUP4 GT PUSH2 0x4E2 JUMPI DUP3 SWAP1 SUB PUSH1 0x1F AND DUP3 ADD SWAP2 JUMPDEST POP POP POP POP POP DUP2 MSTORE POP POP SWAP1 POP SWAP2 SWAP1 POP JUMP JUMPDEST PUSH4 0x4E487B71 PUSH1 0xE0 SHL PUSH0 MSTORE PUSH1 0x41 PUSH1 0x4 MSTORE PUSH1 0x24 PUSH0 REVERT JUMPDEST PUSH0 DUP3 PUSH1 0x1F DUP4 ADD SLT PUSH2 0x532 JUMPI PUSH0 DUP1 REVERT JUMPDEST DUP2 CALLDATALOAD PUSH8 0xFFFFFFFFFFFFFFFF DUP1 DUP3 GT ISZERO PUSH2 0x54D JUMPI PUSH2 0x54D PUSH2 0x50F JUMP JUMPDEST PUSH1 0x40 MLOAD PUSH1 0x1F DUP4 ADD PUSH1 0x1F NOT SWAP1 DUP2 AND PUSH1 0x3F ADD AND DUP2 ADD SWAP1 DUP3 DUP3 GT DUP2 DUP4 LT OR ISZERO PUSH2 0x575 JUMPI PUSH2 0x575 PUSH2 0x50F JUMP JUMPDEST DUP2 PUSH1 0x40 MSTORE DUP4 DUP2 MSTORE DUP7 PUSH1 0x20 DUP6 DUP9 ADD ADD GT ISZERO PUSH2 0x58D JUMPI PUSH0 DUP1 REVERT JUMPDEST DUP4 PUSH1 0x20 DUP8 ADD PUSH1 0x20 DUP4 ADD CALLDATACOPY PUSH0 PUSH1 0x20 DUP6 DUP4 ADD ADD MSTORE DUP1 SWAP5 POP POP POP POP POP SWAP3 SWAP2 POP POP JUMP JUMPDEST PUSH0 DUP1 PUSH0 PUSH1 0x60 DUP5 DUP7 SUB SLT ISZERO PUSH2 0x5BE JUMPI PUSH0 DUP1 REVERT JUMPDEST DUP4 CALLDATALOAD PUSH8 0xFFFFFFFFFFFFFFFF DUP1 DUP3 GT ISZERO PUSH2 0x5D5 JUMPI PUSH0 DUP1 REVERT JUMPDEST PUSH2 0x5E1 DUP8 DUP4 DUP9 ADD PUSH2 0x523 JUMP JUMPDEST SWAP5 POP PUSH1 0x20 DUP7 ADD CALLDATALOAD SWAP2 POP DUP1 DUP3 GT ISZERO PUSH2 0x5F6 JUMPI PUSH0 DUP1 REVERT JUMPDEST PUSH2 0x602 DUP8 DUP4 DUP9 ADD PUSH2 0x523 JUMP JUMPDEST SWAP4 POP PUSH1 0x40 DUP7 ADD CALLDATALOAD SWAP2 POP DUP1 DUP3 GT ISZERO PUSH2 0x617 JUMPI PUSH0 DUP1 REVERT JUMPDEST POP PUSH2 0x624 DUP7 DUP3 DUP8 ADD PUSH2 0x523 JUMP JUMPDEST SWAP2 POP POP SWAP3 POP SWAP3 POP SWAP3 JUMP JUMPDEST PUSH0 PUSH1 0x20 DUP3 DUP5 SUB SLT ISZERO PUSH2 0x63E JUMPI PUSH0 DUP1 REVERT JUMPDEST POP CALLDATALOAD SWAP2 SWAP1 POP JUMP JUMPDEST PUSH0 DUP2 MLOAD DUP1 DUP5 MSTORE DUP1 PUSH1 0x20 DUP5 ADD PUSH1 0x20 DUP7 ADD MCOPY PUSH0 PUSH1 0x20 DUP3 DUP7 ADD ADD MSTORE PUSH1 0x20 PUSH1 0x1F NOT PUSH1 0x1F DUP4 ADD AND DUP6 ADD ADD SWAP2 POP POP SWAP3 SWAP2 POP POP JUMP JUMPDEST DUP5 DUP2 MSTORE PUSH1 0x80 PUSH1 0x20 DUP3 ADD MSTORE PUSH0 PUSH2 0x68B PUSH1 0x80 DUP4 ADD DUP7 PUSH2 0x645 JUMP JUMPDEST DUP3 DUP2 SUB PUSH1 0x40 DUP5 ADD MSTORE PUSH2 0x69D DUP2 DUP7 PUSH2 0x645 JUMP JUMPDEST SWAP1 POP DUP3 DUP2 SUB PUSH1 0x60 DUP5 ADD MSTORE PUSH2 0x6B1 DUP2 DUP6 PUSH2 0x645 JUMP JUMPDEST SWAP8 SWAP7 POP POP POP POP POP POP POP JUMP JUMPDEST PUSH1 0x20 DUP2 MSTORE DUP2 MLOAD PUSH1 0x20 DUP3 ADD MSTORE PUSH0 PUSH1 0x20 DUP4 ADD MLOAD PUSH1 0x80 PUSH1 0x40 DUP5 ADD MSTORE PUSH2 0x6E1 PUSH1 0xA0 DUP5 ADD DUP3 PUSH2 0x645 JUMP JUMPDEST SWAP1 POP PUSH1 0x40 DUP5 ADD MLOAD PUSH1 0x1F NOT DUP1 DUP6 DUP5 SUB ADD PUSH1 0x60 DUP7 ADD MSTORE PUSH2 0x6FF DUP4 DUP4 PUSH2 0x645 JUMP JUMPDEST SWAP3 POP PUSH1 0x60 DUP7 ADD MLOAD SWAP2 POP DUP1 DUP6 DUP5 SUB ADD PUSH1 0x80 DUP7 ADD MSTORE POP PUSH2 0x71D DUP3 DUP3 PUSH2 0x645 JUMP JUMPDEST SWAP6 SWAP5 POP POP POP POP POP JUMP JUMPDEST PUSH0 PUSH1 0x1 DUP3 ADD PUSH2 0x743 JUMPI PUSH4 0x4E487B71 PUSH1 0xE0 SHL PUSH0 MSTORE PUSH1 0x11 PUSH1 0x4 MSTORE PUSH1 0x24 PUSH0 REVERT JUMPDEST POP PUSH1 0x1 ADD SWAP1 JUMP JUMPDEST PUSH1 0x1 DUP2 DUP2 SHR SWAP1 DUP3 AND DUP1 PUSH2 0x75E JUMPI PUSH1 0x7F DUP3 AND SWAP2 POP JUMPDEST PUSH1 0x20 DUP3 LT DUP2 SUB PUSH2 0x77C JUMPI PUSH4 0x4E487B71 PUSH1 0xE0 SHL PUSH0 MSTORE PUSH1 0x22 PUSH1 0x4 MSTORE PUSH1 0x24 PUSH0 REVERT JUMPDEST POP SWAP2 SWAP1 POP JUMP JUMPDEST PUSH1 0x1F DUP3 GT ISZERO PUSH2 0x7C9 JUMPI DUP1 PUSH0 MSTORE PUSH1 0x20 PUSH0 KECCAK256 PUSH1 0x1F DUP5 ADD PUSH1 0x5 SHR DUP2 ADD PUSH1 0x20 DUP6 LT ISZERO PUSH2 0x7A7 JUMPI POP DUP1 JUMPDEST PUSH1 0x1F DUP5 ADD PUSH1 0x5 SHR DUP3 ADD SWAP2 POP JUMPDEST DUP2 DUP2 LT ISZERO PUSH2 0x7C6 JUMPI PUSH0 DUP2 SSTORE PUSH1 0x1 ADD PUSH2 0x7B3 JUMP JUMPDEST POP POP JUMPDEST POP POP POP JUMP JUMPDEST DUP2 MLOAD PUSH8 0xFFFFFFFFFFFFFFFF DUP2 GT ISZERO PUSH2 0x7E8 JUMPI PUSH2 0x7E8 PUSH2 0x50F JUMP JUMPDEST PUSH2 0x7FC DUP2 PUSH2 0x7F6 DUP5 SLOAD PUSH2 0x74A JUMP JUMPDEST DUP5 PUSH2 0x782 JUMP JUMPDEST PUSH1 0x20 DUP1 PUSH1 0x1F DUP4 GT PUSH1 0x1 DUP2 EQ PUSH2 0x82F JUMPI PUSH0 DUP5 ISZERO PUSH2 0x818 JUMPI POP DUP6 DUP4 ADD MLOAD JUMPDEST PUSH0 NOT PUSH1 0x3 DUP7 SWAP1 SHL SHR NOT AND PUSH1 0x1 DUP6 SWAP1 SHL OR DUP6 SSTORE PUSH2 0x14C JUMP JUMPDEST PUSH0 DUP6 DUP2 MSTORE PUSH1 0x20 DUP2 KECCAK256 PUSH1 0x1F NOT DUP7 AND SWAP2 JUMPDEST DUP3 DUP2 LT ISZERO PUSH2 0x85D JUMPI DUP9 DUP7 ADD MLOAD DUP3 SSTORE SWAP5 DUP5 ADD SWAP5 PUSH1 0x1 SWAP1 SWAP2 ADD SWAP1 DUP5 ADD PUSH2 0x83E JUMP JUMPDEST POP DUP6 DUP3 LT ISZERO PUSH2 0x87A JUMPI DUP8 DUP6 ADD MLOAD PUSH0 NOT PUSH1 0x3 DUP9 SWAP1 SHL PUSH1 0xF8 AND SHR NOT AND DUP2 SSTORE JUMPDEST POP POP POP POP POP PUSH1 0x1 SWAP1 DUP2 SHL ADD SWAP1 SSTORE POP JUMP INVALID LOG2 PUSH5 0x6970667358 0x22 SLT KECCAK256 PUSH2 0x9359 LT AND LOG1 GASLIMIT CALLDATASIZE 0xE6 SWAP16 0xBE 0xD TSTORE PUSH16 0xD291513D2D197D8B9235A4932887C4DE EXTCODECOPY SGT PUSH5 0x736F6C6343 STOP ADDMOD NOT STOP CALLER "
    },
    "gasEstimates": {
      "creation": {
        "codeDepositCost": "448000",
        "executionCost": "478",
        "totalCost": "448478"
      },
      "external": {
        "getProduct(uint256)": "infinite",
        "productCount()": "2338",
        "products(uint256)": "infinite",
        "registerProduct(string,string,string)": "infinite"
      }
    },
    "methodIdentifiers": {
      "getProduct(uint256)": "b9db15b4",
      "productCount()": "e0f6ef87",
      "products(uint256)": "7acc0b20",
      "registerProduct(string,string,string)": "3406b718"
    }
  },
  "storageLayout": {
    "storage": [
      {
        "astId": 15,
        "contract": "ProductRegistration.sol:ProductRegistration",
        "label": "products",
        "offset": 0,
        "slot": "0",
        "type": "t_mapping(t_uint256,t_struct(Product)10_storage)"
      },
      {
        "astId": 17,
        "contract": "ProductRegistration.sol:ProductRegistration",
        "label": "productCount",
        "offset": 0,
        "slot": "1",
        "type": "t_uint256"
      }
    ],
    "types": {
      "t_mapping(t_uint256,t_struct(Product)10_storage)": {
        "encoding": "mapping",
        "key": "t_uint256",
        "label": "mapping(uint256 => struct ProductRegistration.Product)",
        "numberOfBytes": "32",
        "value": "t_struct(Product)10_storage"
      },
      "t_string_storage": {
        "encoding": "bytes",
        "label": "string",
        "numberOfBytes": "32"
      },
      "t_struct(Product)10_storage": {
        "encoding": "inplace",
        "label": "struct ProductRegistration.Product",
        "members": [
          {
            "astId": 3,
            "contract": "ProductRegistration.sol:ProductRegistration",
            "label": "id",
            "offset": 0,
            "slot": "0",
            "type": "t_uint256"
          },
          {
            "astId": 5,
            "contract": "ProductRegistration.sol:ProductRegistration",
            "label": "name",
            "offset": 0,
            "slot": "1",
            "type": "t_string_storage"
          },
          {
            "astId": 7,
            "contract": "ProductRegistration.sol:ProductRegistration",
            "label": "description",
            "offset": 0,
            "slot": "2",
            "type": "t_string_storage"
          },
          {
            "astId": 9,
            "contract": "ProductRegistration.sol:ProductRegistration",
            "label": "barcode",
            "offset": 0,
            "slot": "3",
            "type": "t_string_storage"
          }
        ],
        "numberOfBytes": "128"
      },
      "t_uint256": {
        "encoding": "inplace",
        "label": "uint256",
        "numberOfBytes": "32"
      }
    }
  },
  "userdoc": {
    "kind": "user",
    "methods": {},
    "version": 1
  }
}